{
  "_format": "hh-sol-artifact-1",
  "contractName": "MultiSignWallet",
  "sourceName": "contracts/MultiSignWallet.sol",
  "abi": [
    {
      "inputs": [
        {
          "internalType": "address[]",
          "name": "_owners",
          "type": "address[]"
        },
        {
          "internalType": "uint256",
          "name": "_threshold",
          "type": "uint256"
        }
      ],
      "stateMutability": "nonpayable",
      "type": "constructor"
    },
    {
      "inputs": [
        {
          "internalType": "uint256",
          "name": "_amount",
          "type": "uint256"
        },
        {
          "internalType": "address payable",
          "name": "_to",
          "type": "address"
        }
      ],
      "name": "addTransaction",
      "outputs": [],
      "stateMutability": "nonpayable",
      "type": "function"
    },
    {
      "inputs": [
        {
          "internalType": "uint256",
          "name": "_id",
          "type": "uint256"
        }
      ],
      "name": "approve",
      "outputs": [],
      "stateMutability": "nonpayable",
      "type": "function"
    },
    {
      "inputs": [
        {
          "internalType": "uint256",
          "name": "_id",
          "type": "uint256"
        }
      ],
      "name": "getTransaction",
      "outputs": [
        {
          "internalType": "uint256",
          "name": "",
          "type": "uint256"
        },
        {
          "internalType": "uint256",
          "name": "",
          "type": "uint256"
        },
        {
          "internalType": "uint256",
          "name": "",
          "type": "uint256"
        },
        {
          "internalType": "address",
          "name": "",
          "type": "address"
        },
        {
          "internalType": "enum MultiSignWallet.TransactionState",
          "name": "",
          "type": "uint8"
        }
      ],
      "stateMutability": "view",
      "type": "function"
    },
    {
      "inputs": [
        {
          "internalType": "uint256",
          "name": "",
          "type": "uint256"
        }
      ],
      "name": "owners",
      "outputs": [
        {
          "internalType": "address",
          "name": "",
          "type": "address"
        }
      ],
      "stateMutability": "view",
      "type": "function"
    },
    {
      "inputs": [],
      "name": "threshold",
      "outputs": [
        {
          "internalType": "uint256",
          "name": "",
          "type": "uint256"
        }
      ],
      "stateMutability": "view",
      "type": "function"
    },
    {
      "inputs": [
        {
          "internalType": "uint256",
          "name": "_id",
          "type": "uint256"
        }
      ],
      "name": "transferAmount",
      "outputs": [],
      "stateMutability": "payable",
      "type": "function"
    }
  ],
  "bytecode": "0x608060405260006004553480156200001657600080fd5b50604051620015013803806200150183398181016040528101906200003c9190620001e2565b81600090805190602001906200005492919062000064565b508060018190555050506200037c565b828054828255906000526020600020908101928215620000e0579160200282015b82811115620000df5782518260006101000a81548173ffffffffffffffffffffffffffffffffffffffff021916908373ffffffffffffffffffffffffffffffffffffffff1602179055509160200191906001019062000085565b5b509050620000ef9190620000f3565b5090565b5b808211156200010e576000816000905550600101620000f4565b5090565b600062000129620001238462000265565b6200023c565b905080838252602082019050828560208602820111156200014957600080fd5b60005b858110156200017d578162000162888262000187565b8452602084019350602083019250506001810190506200014c565b5050509392505050565b600081519050620001988162000348565b92915050565b600082601f830112620001b057600080fd5b8151620001c284826020860162000112565b91505092915050565b600081519050620001dc8162000362565b92915050565b60008060408385031215620001f657600080fd5b600083015167ffffffffffffffff8111156200021157600080fd5b6200021f858286016200019e565b92505060206200023285828601620001cb565b9150509250929050565b6000620002486200025b565b9050620002568282620002d2565b919050565b6000604051905090565b600067ffffffffffffffff82111562000283576200028262000308565b5b602082029050602081019050919050565b6000620002a182620002a8565b9050919050565b600073ffffffffffffffffffffffffffffffffffffffff82169050919050565b6000819050919050565b620002dd8262000337565b810181811067ffffffffffffffff82111715620002ff57620002fe62000308565b5b80604052505050565b7f4e487b7100000000000000000000000000000000000000000000000000000000600052604160045260246000fd5b6000601f19601f8301169050919050565b620003538162000294565b81146200035f57600080fd5b50565b6200036d81620002c8565b81146200037957600080fd5b50565b611175806200038c6000396000f3fe6080604052600436106100555760003560e01c8063025e7c271461005a57806333ea3dc81461009757806342cde4e8146100d857806355574c9b146101035780638370d0301461011f578063b759f95414610148575b600080fd5b34801561006657600080fd5b50610081600480360381019061007c9190610c2f565b610171565b60405161008e9190610d93565b60405180910390f35b3480156100a357600080fd5b506100be60048036038101906100b99190610c2f565b6101b0565b6040516100cf959493929190610e89565b60405180910390f35b3480156100e457600080fd5b506100ed61026b565b6040516100fa9190610e6e565b60405180910390f35b61011d60048036038101906101189190610c2f565b610271565b005b34801561012b57600080fd5b5061014660048036038101906101419190610c58565b6106ed565b005b34801561015457600080fd5b5061016f600480360381019061016a9190610c2f565b610855565b005b6000818154811061018157600080fd5b906000526020600020016000915054906101000a900473ffffffffffffffffffffffffffffffffffffffff1681565b6000806000806000600360008781526020019081526020016000206000015460036000888152602001908152602001600020600101546003600089815260200190815260200160002060020154600360008a815260200190815260200160002060030160009054906101000a900473ffffffffffffffffffffffffffffffffffffffff16600360008b815260200190815260200160002060030160149054906101000a900460ff169450945094509450945091939590929450565b60015481565b806000805b60008054905081101561033857600081815481106102bd577f4e487b7100000000000000000000000000000000000000000000000000000000600052603260045260246000fd5b9060005260206000200160009054906101000a900473ffffffffffffffffffffffffffffffffffffffff1673ffffffffffffffffffffffffffffffffffffffff163373ffffffffffffffffffffffffffffffffffffffff1614156103245760019150610325565b5b808061033090610f60565b915050610276565b506001151581151514610380576040517f08c379a000000000000000000000000000000000000000000000000000000000815260040161037790610e0e565b60405180910390fd5b826002808111156103ba577f4e487b7100000000000000000000000000000000000000000000000000000000600052602160045260246000fd5b6003600083815260200190815260200160002060030160149054906101000a900460ff166002811115610416577f4e487b7100000000000000000000000000000000000000000000000000000000600052602160045260246000fd5b1415610457576040517f08c379a000000000000000000000000000000000000000000000000000000000815260040161044e90610dce565b60405180910390fd5b8360016002811115610492577f4e487b7100000000000000000000000000000000000000000000000000000000600052602160045260246000fd5b6003600083815260200190815260200160002060030160149054906101000a900460ff1660028111156104ee577f4e487b7100000000000000000000000000000000000000000000000000000000600052602160045260246000fd5b1461052e576040517f08c379a000000000000000000000000000000000000000000000000000000000815260040161052590610dee565b60405180910390fd5b846003600082815260200190815260200160002060010154341115610588576040517f08c379a000000000000000000000000000000000000000000000000000000000815260040161057f90610e4e565b60405180910390fd5b60036000828152602001908152602001600020600101543410156105e1576040517f08c379a00000000000000000000000000000000000000000000000000000000081526004016105d890610dae565b60405180910390fd5b60006003600088815260200190815260200160002060030160009054906101000a900473ffffffffffffffffffffffffffffffffffffffff1690506000600360008981526020019081526020016000206001015490508173ffffffffffffffffffffffffffffffffffffffff166108fc829081150290604051600060405180830381858888f1935050505015801561067d573d6000803e3d6000fd5b506002600360008a815260200190815260200160002060030160146101000a81548160ff021916908360028111156106de577f4e487b7100000000000000000000000000000000000000000000000000000000600052602160045260246000fd5b02179055505050505050505050565b6040518060a001604052806004548152602001838152602001600081526020018273ffffffffffffffffffffffffffffffffffffffff16815260200160006002811115610763577f4e487b7100000000000000000000000000000000000000000000000000000000600052602160045260246000fd5b81525060036000600454815260200190815260200160002060008201518160000155602082015181600101556040820151816002015560608201518160030160006101000a81548173ffffffffffffffffffffffffffffffffffffffff021916908373ffffffffffffffffffffffffffffffffffffffff16021790555060808201518160030160146101000a81548160ff02191690836002811115610831577f4e487b7100000000000000000000000000000000000000000000000000000000600052602160045260246000fd5b02179055509050506004600081548092919061084c90610f60565b91905055505050565b806000805b60008054905081101561091c57600081815481106108a1577f4e487b7100000000000000000000000000000000000000000000000000000000600052603260045260246000fd5b9060005260206000200160009054906101000a900473ffffffffffffffffffffffffffffffffffffffff1673ffffffffffffffffffffffffffffffffffffffff163373ffffffffffffffffffffffffffffffffffffffff1614156109085760019150610909565b5b808061091490610f60565b91505061085a565b506001151581151514610964576040517f08c379a000000000000000000000000000000000000000000000000000000000815260040161095b90610e0e565b60405180910390fd5b8260028081111561099e577f4e487b7100000000000000000000000000000000000000000000000000000000600052602160045260246000fd5b6003600083815260200190815260200160002060030160149054906101000a900460ff1660028111156109fa577f4e487b7100000000000000000000000000000000000000000000000000000000600052602160045260246000fd5b1415610a3b576040517f08c379a0000000000000000000000000000000000000000000000000000000008152600401610a3290610dce565b60405180910390fd5b60001515600260003373ffffffffffffffffffffffffffffffffffffffff1673ffffffffffffffffffffffffffffffffffffffff168152602001908152602001600020600086815260200190815260200160002060009054906101000a900460ff1615151415610b3f576001600260003373ffffffffffffffffffffffffffffffffffffffff1673ffffffffffffffffffffffffffffffffffffffff168152602001908152602001600020600086815260200190815260200160002060006101000a81548160ff021916908315150217905550600360008581526020019081526020016000206002016000815480929190610b3590610f60565b9190505550610b7a565b6040517f08c379a0000000000000000000000000000000000000000000000000000000008152600401610b7190610e2e565b60405180910390fd5b600154600360008681526020019081526020016000206002015410610bff5760016003600086815260200190815260200160002060030160146101000a81548160ff02191690836002811115610bf9577f4e487b7100000000000000000000000000000000000000000000000000000000600052602160045260246000fd5b02179055505b50505050565b600081359050610c1481611111565b92915050565b600081359050610c2981611128565b92915050565b600060208284031215610c4157600080fd5b6000610c4f84828501610c1a565b91505092915050565b60008060408385031215610c6b57600080fd5b6000610c7985828601610c1a565b9250506020610c8a85828601610c05565b9150509250929050565b610c9d81610eed565b82525050565b610cac81610f4e565b82525050565b6000610cbf601c83610edc565b9150610cca82611007565b602082019050919050565b6000610ce2601f83610edc565b9150610ced82611030565b602082019050919050565b6000610d05601c83610edc565b9150610d1082611059565b602082019050919050565b6000610d28600e83610edc565b9150610d3382611082565b602082019050919050565b6000610d4b601283610edc565b9150610d56826110ab565b602082019050919050565b6000610d6e601e83610edc565b9150610d79826110d4565b602082019050919050565b610d8d81610f44565b82525050565b6000602082019050610da86000830184610c94565b92915050565b60006020820190508181036000830152610dc781610cb2565b9050919050565b60006020820190508181036000830152610de781610cd5565b9050919050565b60006020820190508181036000830152610e0781610cf8565b9050919050565b60006020820190508181036000830152610e2781610d1b565b9050919050565b60006020820190508181036000830152610e4781610d3e565b9050919050565b60006020820190508181036000830152610e6781610d61565b9050919050565b6000602082019050610e836000830184610d84565b92915050565b600060a082019050610e9e6000830188610d84565b610eab6020830187610d84565b610eb86040830186610d84565b610ec56060830185610c94565b610ed26080830184610ca3565b9695505050505050565b600082825260208201905092915050565b6000610ef882610f24565b9050919050565b6000610f0a82610f24565b9050919050565b6000819050610f1f826110fd565b919050565b600073ffffffffffffffffffffffffffffffffffffffff82169050919050565b6000819050919050565b6000610f5982610f11565b9050919050565b6000610f6b82610f44565b91507fffffffffffffffffffffffffffffffffffffffffffffffffffffffffffffffff821415610f9e57610f9d610fa9565b5b600182019050919050565b7f4e487b7100000000000000000000000000000000000000000000000000000000600052601160045260246000fd5b7f4e487b7100000000000000000000000000000000000000000000000000000000600052602160045260246000fd5b7f4164642073756666696369656e742066756e6420616d6f756e74212100000000600082015250565b7f5472616e73616374696f6e20416c726561647920436f6d706c65746564212100600082015250565b7f5374696c6c2050656e64696e6720466f7220417070726f76616c212100000000600082015250565b7f4e6f7420616e204f776e65722121000000000000000000000000000000000000600082015250565b7f416c726561647920417070726f76656421210000000000000000000000000000600082015250565b7f43616e277420616464206d6f7265207468616e20726571756972656421210000600082015250565b6003811061110e5761110d610fd8565b5b50565b61111a81610eff565b811461112557600080fd5b50565b61113181610f44565b811461113c57600080fd5b5056fea264697066735822122079a4f352dcfcd046af3659b991556a498c8aee93af4ce1274ce5ea9e542adbf464736f6c63430008040033",
  "linkReferences": {},
  "deployedLinkReferences": {}
}