{
  "_format": "hh-sol-artifact-1",
  "contractName": "MultiSignWallet",
  "sourceName": "contracts/MultiSignWallet.sol",
  "abi": [
    {
      "inputs": [
        {
          "internalType": "address[]",
          "name": "_owners",
          "type": "address[]"
        },
        {
          "internalType": "uint256",
          "name": "_threshold",
          "type": "uint256"
        }
      ],
      "stateMutability": "nonpayable",
      "type": "constructor"
    },
    {
      "inputs": [
        {
          "internalType": "uint256",
          "name": "_amount",
          "type": "uint256"
        },
        {
          "internalType": "address payable",
          "name": "_to",
          "type": "address"
        }
      ],
      "name": "addTransaction",
      "outputs": [],
      "stateMutability": "nonpayable",
      "type": "function"
    },
    {
      "inputs": [
        {
          "internalType": "uint256",
          "name": "_id",
          "type": "uint256"
        }
      ],
      "name": "approve",
      "outputs": [],
      "stateMutability": "nonpayable",
      "type": "function"
    },
    {
      "inputs": [],
      "name": "getTotal",
      "outputs": [
        {
          "internalType": "uint256",
          "name": "",
          "type": "uint256"
        }
      ],
      "stateMutability": "view",
      "type": "function"
    },
    {
      "inputs": [
        {
          "internalType": "uint256",
          "name": "_id",
          "type": "uint256"
        }
      ],
      "name": "getTransaction",
      "outputs": [
        {
          "internalType": "uint256",
          "name": "",
          "type": "uint256"
        },
        {
          "internalType": "uint256",
          "name": "",
          "type": "uint256"
        },
        {
          "internalType": "uint256",
          "name": "",
          "type": "uint256"
        },
        {
          "internalType": "address",
          "name": "",
          "type": "address"
        },
        {
          "internalType": "enum MultiSignWallet.TransactionState",
          "name": "",
          "type": "uint8"
        }
      ],
      "stateMutability": "view",
      "type": "function"
    },
    {
      "inputs": [
        {
          "internalType": "uint256",
          "name": "",
          "type": "uint256"
        }
      ],
      "name": "owners",
      "outputs": [
        {
          "internalType": "address",
          "name": "",
          "type": "address"
        }
      ],
      "stateMutability": "view",
      "type": "function"
    },
    {
      "inputs": [],
      "name": "threshold",
      "outputs": [
        {
          "internalType": "uint256",
          "name": "",
          "type": "uint256"
        }
      ],
      "stateMutability": "view",
      "type": "function"
    },
    {
      "inputs": [
        {
          "internalType": "uint256",
          "name": "_id",
          "type": "uint256"
        }
      ],
      "name": "transferAmount",
      "outputs": [],
      "stateMutability": "payable",
      "type": "function"
    }
  ],
  "bytecode": "0x6080604052600060025560006005553480156200001b57600080fd5b50604051620015ae380380620015ae8339818101604052810190620000419190620001e7565b81600090805190602001906200005992919062000069565b5080600181905550505062000381565b828054828255906000526020600020908101928215620000e5579160200282015b82811115620000e45782518260006101000a81548173ffffffffffffffffffffffffffffffffffffffff021916908373ffffffffffffffffffffffffffffffffffffffff160217905550916020019190600101906200008a565b5b509050620000f49190620000f8565b5090565b5b8082111562000113576000816000905550600101620000f9565b5090565b60006200012e62000128846200026a565b62000241565b905080838252602082019050828560208602820111156200014e57600080fd5b60005b858110156200018257816200016788826200018c565b84526020840193506020830192505060018101905062000151565b5050509392505050565b6000815190506200019d816200034d565b92915050565b600082601f830112620001b557600080fd5b8151620001c784826020860162000117565b91505092915050565b600081519050620001e18162000367565b92915050565b60008060408385031215620001fb57600080fd5b600083015167ffffffffffffffff8111156200021657600080fd5b6200022485828601620001a3565b92505060206200023785828601620001d0565b9150509250929050565b60006200024d62000260565b90506200025b8282620002d7565b919050565b6000604051905090565b600067ffffffffffffffff8211156200028857620002876200030d565b5b602082029050602081019050919050565b6000620002a682620002ad565b9050919050565b600073ffffffffffffffffffffffffffffffffffffffff82169050919050565b6000819050919050565b620002e2826200033c565b810181811067ffffffffffffffff821117156200030457620003036200030d565b5b80604052505050565b7f4e487b7100000000000000000000000000000000000000000000000000000000600052604160045260246000fd5b6000601f19601f8301169050919050565b620003588162000299565b81146200036457600080fd5b50565b6200037281620002cd565b81146200037e57600080fd5b50565b61121d80620003916000396000f3fe6080604052600436106100705760003560e01c806355574c9b1161004e57806355574c9b1461011e578063775a25e31461013a5780638370d03014610165578063b759f9541461018e57610070565b8063025e7c271461007557806333ea3dc8146100b257806342cde4e8146100f3575b600080fd5b34801561008157600080fd5b5061009c60048036038101906100979190610ca3565b6101b7565b6040516100a99190610e07565b60405180910390f35b3480156100be57600080fd5b506100d960048036038101906100d49190610ca3565b6101f6565b6040516100ea959493929190610efd565b60405180910390f35b3480156100ff57600080fd5b506101086102b1565b6040516101159190610ee2565b60405180910390f35b61013860048036038101906101339190610ca3565b6102b7565b005b34801561014657600080fd5b5061014f610733565b60405161015c9190610ee2565b60405180910390f35b34801561017157600080fd5b5061018c60048036038101906101879190610ccc565b610749565b005b34801561019a57600080fd5b506101b560048036038101906101b09190610ca3565b6108c9565b005b600081815481106101c757600080fd5b906000526020600020016000915054906101000a900473ffffffffffffffffffffffffffffffffffffffff1681565b6000806000806000600460008781526020019081526020016000206000015460046000888152602001908152602001600020600101546004600089815260200190815260200160002060020154600460008a815260200190815260200160002060030160009054906101000a900473ffffffffffffffffffffffffffffffffffffffff16600460008b815260200190815260200160002060030160149054906101000a900460ff169450945094509450945091939590929450565b60015481565b806000805b60008054905081101561037e5760008181548110610303577f4e487b7100000000000000000000000000000000000000000000000000000000600052603260045260246000fd5b9060005260206000200160009054906101000a900473ffffffffffffffffffffffffffffffffffffffff1673ffffffffffffffffffffffffffffffffffffffff163373ffffffffffffffffffffffffffffffffffffffff16141561036a576001915061036b565b5b808061037690611008565b9150506102bc565b5060011515811515146103c6576040517f08c379a00000000000000000000000000000000000000000000000000000000081526004016103bd90610e82565b60405180910390fd5b82600280811115610400577f4e487b7100000000000000000000000000000000000000000000000000000000600052602160045260246000fd5b6004600083815260200190815260200160002060030160149054906101000a900460ff16600281111561045c577f4e487b7100000000000000000000000000000000000000000000000000000000600052602160045260246000fd5b141561049d576040517f08c379a000000000000000000000000000000000000000000000000000000000815260040161049490610e42565b60405180910390fd5b83600160028111156104d8577f4e487b7100000000000000000000000000000000000000000000000000000000600052602160045260246000fd5b6004600083815260200190815260200160002060030160149054906101000a900460ff166002811115610534577f4e487b7100000000000000000000000000000000000000000000000000000000600052602160045260246000fd5b14610574576040517f08c379a000000000000000000000000000000000000000000000000000000000815260040161056b90610e62565b60405180910390fd5b8460046000828152602001908152602001600020600101543411156105ce576040517f08c379a00000000000000000000000000000000000000000000000000000000081526004016105c590610ec2565b60405180910390fd5b6004600082815260200190815260200160002060010154341015610627576040517f08c379a000000000000000000000000000000000000000000000000000000000815260040161061e90610e22565b60405180910390fd5b60006004600088815260200190815260200160002060030160009054906101000a900473ffffffffffffffffffffffffffffffffffffffff1690506000600460008981526020019081526020016000206001015490508173ffffffffffffffffffffffffffffffffffffffff166108fc829081150290604051600060405180830381858888f193505050501580156106c3573d6000803e3d6000fd5b506002600460008a815260200190815260200160002060030160146101000a81548160ff02191690836002811115610724577f4e487b7100000000000000000000000000000000000000000000000000000000600052602160045260246000fd5b02179055505050505050505050565b600060016002546107449190610f61565b905090565b6040518060a001604052806005548152602001838152602001600081526020018273ffffffffffffffffffffffffffffffffffffffff168152602001600060028111156107bf577f4e487b7100000000000000000000000000000000000000000000000000000000600052602160045260246000fd5b81525060046000600554815260200190815260200160002060008201518160000155602082015181600101556040820151816002015560608201518160030160006101000a81548173ffffffffffffffffffffffffffffffffffffffff021916908373ffffffffffffffffffffffffffffffffffffffff16021790555060808201518160030160146101000a81548160ff0219169083600281111561088d577f4e487b7100000000000000000000000000000000000000000000000000000000600052602160045260246000fd5b0217905550905050600560008154809291906108a890611008565b9190505550600260008154809291906108c090611008565b91905055505050565b806000805b6000805490508110156109905760008181548110610915577f4e487b7100000000000000000000000000000000000000000000000000000000600052603260045260246000fd5b9060005260206000200160009054906101000a900473ffffffffffffffffffffffffffffffffffffffff1673ffffffffffffffffffffffffffffffffffffffff163373ffffffffffffffffffffffffffffffffffffffff16141561097c576001915061097d565b5b808061098890611008565b9150506108ce565b5060011515811515146109d8576040517f08c379a00000000000000000000000000000000000000000000000000000000081526004016109cf90610e82565b60405180910390fd5b82600280811115610a12577f4e487b7100000000000000000000000000000000000000000000000000000000600052602160045260246000fd5b6004600083815260200190815260200160002060030160149054906101000a900460ff166002811115610a6e577f4e487b7100000000000000000000000000000000000000000000000000000000600052602160045260246000fd5b1415610aaf576040517f08c379a0000000000000000000000000000000000000000000000000000000008152600401610aa690610e42565b60405180910390fd5b60001515600360003373ffffffffffffffffffffffffffffffffffffffff1673ffffffffffffffffffffffffffffffffffffffff168152602001908152602001600020600086815260200190815260200160002060009054906101000a900460ff1615151415610bb3576001600360003373ffffffffffffffffffffffffffffffffffffffff1673ffffffffffffffffffffffffffffffffffffffff168152602001908152602001600020600086815260200190815260200160002060006101000a81548160ff021916908315150217905550600460008581526020019081526020016000206002016000815480929190610ba990611008565b9190505550610bee565b6040517f08c379a0000000000000000000000000000000000000000000000000000000008152600401610be590610ea2565b60405180910390fd5b600154600460008681526020019081526020016000206002015410610c735760016004600086815260200190815260200160002060030160146101000a81548160ff02191690836002811115610c6d577f4e487b7100000000000000000000000000000000000000000000000000000000600052602160045260246000fd5b02179055505b50505050565b600081359050610c88816111b9565b92915050565b600081359050610c9d816111d0565b92915050565b600060208284031215610cb557600080fd5b6000610cc384828501610c8e565b91505092915050565b60008060408385031215610cdf57600080fd5b6000610ced85828601610c8e565b9250506020610cfe85828601610c79565b9150509250929050565b610d1181610f95565b82525050565b610d2081610ff6565b82525050565b6000610d33601c83610f50565b9150610d3e826110af565b602082019050919050565b6000610d56601f83610f50565b9150610d61826110d8565b602082019050919050565b6000610d79601c83610f50565b9150610d8482611101565b602082019050919050565b6000610d9c600e83610f50565b9150610da78261112a565b602082019050919050565b6000610dbf601283610f50565b9150610dca82611153565b602082019050919050565b6000610de2601e83610f50565b9150610ded8261117c565b602082019050919050565b610e0181610fec565b82525050565b6000602082019050610e1c6000830184610d08565b92915050565b60006020820190508181036000830152610e3b81610d26565b9050919050565b60006020820190508181036000830152610e5b81610d49565b9050919050565b60006020820190508181036000830152610e7b81610d6c565b9050919050565b60006020820190508181036000830152610e9b81610d8f565b9050919050565b60006020820190508181036000830152610ebb81610db2565b9050919050565b60006020820190508181036000830152610edb81610dd5565b9050919050565b6000602082019050610ef76000830184610df8565b92915050565b600060a082019050610f126000830188610df8565b610f1f6020830187610df8565b610f2c6040830186610df8565b610f396060830185610d08565b610f466080830184610d17565b9695505050505050565b600082825260208201905092915050565b6000610f6c82610fec565b9150610f7783610fec565b925082821015610f8a57610f89611051565b5b828203905092915050565b6000610fa082610fcc565b9050919050565b6000610fb282610fcc565b9050919050565b6000819050610fc7826111a5565b919050565b600073ffffffffffffffffffffffffffffffffffffffff82169050919050565b6000819050919050565b600061100182610fb9565b9050919050565b600061101382610fec565b91507fffffffffffffffffffffffffffffffffffffffffffffffffffffffffffffffff82141561104657611045611051565b5b600182019050919050565b7f4e487b7100000000000000000000000000000000000000000000000000000000600052601160045260246000fd5b7f4e487b7100000000000000000000000000000000000000000000000000000000600052602160045260246000fd5b7f4164642073756666696369656e742066756e6420616d6f756e74212100000000600082015250565b7f5472616e73616374696f6e20416c726561647920436f6d706c65746564212100600082015250565b7f5374696c6c2050656e64696e6720466f7220417070726f76616c212100000000600082015250565b7f4e6f7420616e204f776e65722121000000000000000000000000000000000000600082015250565b7f416c726561647920417070726f76656421210000000000000000000000000000600082015250565b7f43616e277420616464206d6f7265207468616e20726571756972656421210000600082015250565b600381106111b6576111b5611080565b5b50565b6111c281610fa7565b81146111cd57600080fd5b50565b6111d981610fec565b81146111e457600080fd5b5056fea26469706673582212200dcbbe9cf38224bfc1eb6560089f3491ffba13f4e10428e0ed1deb69eadc742064736f6c63430008040033",
  "linkReferences": {},
  "deployedLinkReferences": {}
}